{
  "abi": [
    {
      "inputs": [],
      "stateMutability": "nonpayable",
      "type": "constructor"
    },
    {
      "anonymous": false,
      "inputs": [
        {
          "indexed": true,
          "internalType": "address",
          "name": "owner",
          "type": "address"
        },
        {
          "indexed": true,
          "internalType": "address",
          "name": "approved",
          "type": "address"
        },
        {
          "indexed": true,
          "internalType": "uint256",
          "name": "tokenId",
          "type": "uint256"
        }
      ],
      "name": "Approval",
      "type": "event"
    },
    {
      "anonymous": false,
      "inputs": [
        {
          "indexed": true,
          "internalType": "address",
          "name": "owner",
          "type": "address"
        },
        {
          "indexed": true,
          "internalType": "address",
          "name": "operator",
          "type": "address"
        },
        {
          "indexed": false,
          "internalType": "bool",
          "name": "approved",
          "type": "bool"
        }
      ],
      "name": "ApprovalForAll",
      "type": "event"
    },
    {
      "anonymous": false,
      "inputs": [
        {
          "indexed": true,
          "internalType": "address",
          "name": "from",
          "type": "address"
        },
        {
          "indexed": true,
          "internalType": "address",
          "name": "to",
          "type": "address"
        },
        {
          "indexed": true,
          "internalType": "uint256",
          "name": "tokenId",
          "type": "uint256"
        }
      ],
      "name": "Transfer",
      "type": "event"
    },
    {
      "inputs": [
        {
          "internalType": "address",
          "name": "",
          "type": "address"
        }
      ],
      "name": "amountMinted",
      "outputs": [
        {
          "internalType": "uint256",
          "name": "",
          "type": "uint256"
        }
      ],
      "stateMutability": "view",
      "type": "function"
    },
    {
      "inputs": [
        {
          "internalType": "address",
          "name": "to",
          "type": "address"
        },
        {
          "internalType": "uint256",
          "name": "tokenId",
          "type": "uint256"
        }
      ],
      "name": "approve",
      "outputs": [],
      "stateMutability": "nonpayable",
      "type": "function"
    },
    {
      "inputs": [
        {
          "internalType": "address",
          "name": "owner",
          "type": "address"
        }
      ],
      "name": "balanceOf",
      "outputs": [
        {
          "internalType": "uint256",
          "name": "",
          "type": "uint256"
        }
      ],
      "stateMutability": "view",
      "type": "function"
    },
    {
      "inputs": [
        {
          "internalType": "uint256",
          "name": "tokenId",
          "type": "uint256"
        }
      ],
      "name": "getApproved",
      "outputs": [
        {
          "internalType": "address",
          "name": "",
          "type": "address"
        }
      ],
      "stateMutability": "view",
      "type": "function"
    },
    {
      "inputs": [
        {
          "internalType": "address",
          "name": "owner",
          "type": "address"
        },
        {
          "internalType": "address",
          "name": "operator",
          "type": "address"
        }
      ],
      "name": "isApprovedForAll",
      "outputs": [
        {
          "internalType": "bool",
          "name": "",
          "type": "bool"
        }
      ],
      "stateMutability": "view",
      "type": "function"
    },
    {
      "inputs": [],
      "name": "mint",
      "outputs": [],
      "stateMutability": "nonpayable",
      "type": "function"
    },
    {
      "inputs": [],
      "name": "name",
      "outputs": [
        {
          "internalType": "string",
          "name": "",
          "type": "string"
        }
      ],
      "stateMutability": "view",
      "type": "function"
    },
    {
      "inputs": [
        {
          "internalType": "uint256",
          "name": "tokenId",
          "type": "uint256"
        }
      ],
      "name": "ownerOf",
      "outputs": [
        {
          "internalType": "address",
          "name": "",
          "type": "address"
        }
      ],
      "stateMutability": "view",
      "type": "function"
    },
    {
      "inputs": [
        {
          "internalType": "address",
          "name": "from",
          "type": "address"
        },
        {
          "internalType": "address",
          "name": "to",
          "type": "address"
        },
        {
          "internalType": "uint256",
          "name": "tokenId",
          "type": "uint256"
        }
      ],
      "name": "safeTransferFrom",
      "outputs": [],
      "stateMutability": "nonpayable",
      "type": "function"
    },
    {
      "inputs": [
        {
          "internalType": "address",
          "name": "from",
          "type": "address"
        },
        {
          "internalType": "address",
          "name": "to",
          "type": "address"
        },
        {
          "internalType": "uint256",
          "name": "tokenId",
          "type": "uint256"
        },
        {
          "internalType": "bytes",
          "name": "data",
          "type": "bytes"
        }
      ],
      "name": "safeTransferFrom",
      "outputs": [],
      "stateMutability": "nonpayable",
      "type": "function"
    },
    {
      "inputs": [
        {
          "internalType": "address",
          "name": "operator",
          "type": "address"
        },
        {
          "internalType": "bool",
          "name": "approved",
          "type": "bool"
        }
      ],
      "name": "setApprovalForAll",
      "outputs": [],
      "stateMutability": "nonpayable",
      "type": "function"
    },
    {
      "inputs": [
        {
          "internalType": "bytes4",
          "name": "interfaceId",
          "type": "bytes4"
        }
      ],
      "name": "supportsInterface",
      "outputs": [
        {
          "internalType": "bool",
          "name": "",
          "type": "bool"
        }
      ],
      "stateMutability": "view",
      "type": "function"
    },
    {
      "inputs": [],
      "name": "symbol",
      "outputs": [
        {
          "internalType": "string",
          "name": "",
          "type": "string"
        }
      ],
      "stateMutability": "view",
      "type": "function"
    },
    {
      "inputs": [
        {
          "internalType": "uint256",
          "name": "tokenId",
          "type": "uint256"
        }
      ],
      "name": "tokenURI",
      "outputs": [
        {
          "internalType": "string",
          "name": "",
          "type": "string"
        }
      ],
      "stateMutability": "view",
      "type": "function"
    },
    {
      "inputs": [],
      "name": "totalSupply",
      "outputs": [
        {
          "internalType": "uint256",
          "name": "",
          "type": "uint256"
        }
      ],
      "stateMutability": "view",
      "type": "function"
    },
    {
      "inputs": [
        {
          "internalType": "address",
          "name": "from",
          "type": "address"
        },
        {
          "internalType": "address",
          "name": "to",
          "type": "address"
        },
        {
          "internalType": "uint256",
          "name": "tokenId",
          "type": "uint256"
        }
      ],
      "name": "transferFrom",
      "outputs": [],
      "stateMutability": "nonpayable",
      "type": "function"
    }
  ],
  "bytecode": {
    "object": "0x60806040523480156200001157600080fd5b506040518060400160405280600981526020016815dc9bdb99c813919560ba1b8152506040518060400160405280600581526020016457726f6e6760d81b815250816000908162000063919062000120565b50600162000072828262000120565b505050620001ec565b634e487b7160e01b600052604160045260246000fd5b600181811c90821680620000a657607f821691505b602082108103620000c757634e487b7160e01b600052602260045260246000fd5b50919050565b601f8211156200011b57600081815260208120601f850160051c81016020861015620000f65750805b601f850160051c820191505b81811015620001175782815560010162000102565b5050505b505050565b81516001600160401b038111156200013c576200013c6200007b565b62000154816200014d845462000091565b84620000cd565b602080601f8311600181146200018c5760008415620001735750858301515b600019600386901b1c1916600185901b17855562000117565b600085815260208120601f198616915b82811015620001bd578886015182559484019460019091019084016200019c565b5085821015620001dc5787850151600019600388901b60f8161c191681555b5050505050600190811b01905550565b61141880620001fc6000396000f3fe608060405234801561001057600080fd5b50600436106101005760003560e01c8063438a67e711610097578063a22cb46511610066578063a22cb46514610215578063b88d4fde14610228578063c87b56dd1461023b578063e985e9c51461024e57600080fd5b8063438a67e7146101c75780636352211e146101e757806370a08231146101fa57806395d89b411461020d57600080fd5b80631249c58b116100d35780631249c58b1461018257806318160ddd1461018a57806323b872dd146101a157806342842e0e146101b457600080fd5b806301ffc9a71461010557806306fdde031461012d578063081812fc14610142578063095ea7b31461016d575b600080fd5b610118610113366004610f7d565b61028a565b60405190151581526020015b60405180910390f35b6101356102dc565b6040516101249190610fea565b610155610150366004610ffd565b61036e565b6040516001600160a01b039091168152602001610124565b61018061017b366004611032565b610395565b005b6101806104af565b61019360075481565b604051908152602001610124565b6101806101af36600461105c565b610573565b6101806101c236600461105c565b6105a4565b6101936101d5366004611098565b60066020526000908152604090205481565b6101556101f5366004610ffd565b6105bf565b610193610208366004611098565b61061f565b6101356106a5565b6101806102233660046110b3565b6106b4565b610180610236366004611105565b6106c3565b610135610249366004610ffd565b6106fb565b61011861025c3660046111e1565b6001600160a01b03918216600090815260056020908152604080832093909416825291909152205460ff1690565b60006001600160e01b031982166380ac58cd60e01b14806102bb57506001600160e01b03198216635b5e139f60e01b145b806102d657506301ffc9a760e01b6001600160e01b03198316145b92915050565b6060600080546102eb90611214565b80601f016020809104026020016040519081016040528092919081815260200182805461031790611214565b80156103645780601f1061033957610100808354040283529160200191610364565b820191906000526020600020905b81548152906001019060200180831161034757829003601f168201915b5050505050905090565b60006103798261076f565b506000908152600460205260409020546001600160a01b031690565b60006103a0826105bf565b9050806001600160a01b0316836001600160a01b0316036104125760405162461bcd60e51b815260206004820152602160248201527f4552433732313a20617070726f76616c20746f2063757272656e74206f776e656044820152603960f91b60648201526084015b60405180910390fd5b336001600160a01b038216148061042e575061042e813361025c565b6104a05760405162461bcd60e51b815260206004820152603d60248201527f4552433732313a20617070726f76652063616c6c6572206973206e6f7420746f60448201527f6b656e206f776e6572206f7220617070726f76656420666f7220616c6c0000006064820152608401610409565b6104aa83836107d1565b505050565b336000908152600660205260409020546001036104fa5760405162461bcd60e51b81526020600482015260096024820152681b585e080c4813919560ba1b6044820152606401610409565b600a6007541061053d5760405162461bcd60e51b815260206004820152600e60248201526d6d6178696d756d20737570706c7960901b6044820152606401610409565b6007805490600061054d8361124e565b919050555061055e3360075461083f565b33600090815260066020526040902060019055565b61057d3382610859565b6105995760405162461bcd60e51b815260040161040990611275565b6104aa8383836108d8565b6104aa838383604051806020016040528060008152506106c3565b6000818152600260205260408120546001600160a01b0316806102d65760405162461bcd60e51b8152602060048201526018602482015277115490cdcc8c4e881a5b9d985b1a59081d1bdad95b88125160421b6044820152606401610409565b60006001600160a01b0382166106895760405162461bcd60e51b815260206004820152602960248201527f4552433732313a2061646472657373207a65726f206973206e6f7420612076616044820152683634b21037bbb732b960b91b6064820152608401610409565b506001600160a01b031660009081526003602052604090205490565b6060600180546102eb90611214565b6106bf338383610a3c565b5050565b6106cd3383610859565b6106e95760405162461bcd60e51b815260040161040990611275565b6106f584848484610b0a565b50505050565b60606107068261076f565b600061071d60408051602081019091526000815290565b9050600081511161073d5760405180602001604052806000815250610768565b8061074784610b3d565b6040516020016107589291906112c2565b6040516020818303038152906040525b9392505050565b6000818152600260205260409020546001600160a01b03166107ce5760405162461bcd60e51b8152602060048201526018602482015277115490cdcc8c4e881a5b9d985b1a59081d1bdad95b88125160421b6044820152606401610409565b50565b600081815260046020526040902080546001600160a01b0319166001600160a01b0384169081179091558190610806826105bf565b6001600160a01b03167f8c5be1e5ebec7d5bd14f71427d1e84f3dd0314c0f7b2291e5b200ac8c7c3b92560405160405180910390a45050565b6106bf828260405180602001604052806000815250610bd0565b600080610865836105bf565b9050806001600160a01b0316846001600160a01b031614806108ac57506001600160a01b0380821660009081526005602090815260408083209388168352929052205460ff165b806108d05750836001600160a01b03166108c58461036e565b6001600160a01b0316145b949350505050565b826001600160a01b03166108eb826105bf565b6001600160a01b0316146109115760405162461bcd60e51b8152600401610409906112f1565b6001600160a01b0382166109735760405162461bcd60e51b8152602060048201526024808201527f4552433732313a207472616e7366657220746f20746865207a65726f206164646044820152637265737360e01b6064820152608401610409565b826001600160a01b0316610986826105bf565b6001600160a01b0316146109ac5760405162461bcd60e51b8152600401610409906112f1565b600081815260046020908152604080832080546001600160a01b03199081169091556001600160a01b0387811680865260038552838620805460001901905590871680865283862080546001019055868652600290945282852080549092168417909155905184937fddf252ad1be2c89b69c2b068fc378daa952ba7f163c4a11628f55a4df523b3ef91a4505050565b816001600160a01b0316836001600160a01b031603610a9d5760405162461bcd60e51b815260206004820152601960248201527f4552433732313a20617070726f766520746f2063616c6c6572000000000000006044820152606401610409565b6001600160a01b03838116600081815260056020908152604080832094871680845294825291829020805460ff191686151590811790915591519182527f17307eab39ab6107e8899845ad3d59bd9653f200f220920489ca2b5937696c31910160405180910390a3505050565b610b158484846108d8565b610b2184848484610c03565b6106f55760405162461bcd60e51b815260040161040990611336565b60606000610b4a83610d04565b600101905060008167ffffffffffffffff811115610b6a57610b6a6110ef565b6040519080825280601f01601f191660200182016040528015610b94576020820181803683370190505b5090508181016020015b600019016f181899199a1a9b1b9c1cb0b131b232b360811b600a86061a8153600a8504945084610b9e57509392505050565b610bda8383610ddc565b610be76000848484610c03565b6104aa5760405162461bcd60e51b815260040161040990611336565b60006001600160a01b0384163b15610cf957604051630a85bd0160e11b81526001600160a01b0385169063150b7a0290610c47903390899088908890600401611388565b6020604051808303816000875af1925050508015610c82575060408051601f3d908101601f19168201909252610c7f918101906113c5565b60015b610cdf573d808015610cb0576040519150601f19603f3d011682016040523d82523d6000602084013e610cb5565b606091505b508051600003610cd75760405162461bcd60e51b815260040161040990611336565b805181602001fd5b6001600160e01b031916630a85bd0160e11b1490506108d0565b506001949350505050565b60008072184f03e93ff9f4daa797ed6e38ed64bf6a1f0160401b8310610d435772184f03e93ff9f4daa797ed6e38ed64bf6a1f0160401b830492506040015b6d04ee2d6d415b85acef81000000008310610d6f576d04ee2d6d415b85acef8100000000830492506020015b662386f26fc100008310610d8d57662386f26fc10000830492506010015b6305f5e1008310610da5576305f5e100830492506008015b6127108310610db957612710830492506004015b60648310610dcb576064830492506002015b600a83106102d65760010192915050565b6001600160a01b038216610e325760405162461bcd60e51b815260206004820181905260248201527f4552433732313a206d696e7420746f20746865207a65726f20616464726573736044820152606401610409565b6000818152600260205260409020546001600160a01b031615610e975760405162461bcd60e51b815260206004820152601c60248201527f4552433732313a20746f6b656e20616c7265616479206d696e746564000000006044820152606401610409565b6000818152600260205260409020546001600160a01b031615610efc5760405162461bcd60e51b815260206004820152601c60248201527f4552433732313a20746f6b656e20616c7265616479206d696e746564000000006044820152606401610409565b6001600160a01b038216600081815260036020908152604080832080546001019055848352600290915280822080546001600160a01b0319168417905551839291907fddf252ad1be2c89b69c2b068fc378daa952ba7f163c4a11628f55a4df523b3ef908290a45050565b6001600160e01b0319811681146107ce57600080fd5b600060208284031215610f8f57600080fd5b813561076881610f67565b60005b83811015610fb5578181015183820152602001610f9d565b50506000910152565b60008151808452610fd6816020860160208601610f9a565b601f01601f19169290920160200192915050565b6020815260006107686020830184610fbe565b60006020828403121561100f57600080fd5b5035919050565b80356001600160a01b038116811461102d57600080fd5b919050565b6000806040838503121561104557600080fd5b61104e83611016565b946020939093013593505050565b60008060006060848603121561107157600080fd5b61107a84611016565b925061108860208501611016565b9150604084013590509250925092565b6000602082840312156110aa57600080fd5b61076882611016565b600080604083850312156110c657600080fd5b6110cf83611016565b9150602083013580151581146110e457600080fd5b809150509250929050565b634e487b7160e01b600052604160045260246000fd5b6000806000806080858703121561111b57600080fd5b61112485611016565b935061113260208601611016565b925060408501359150606085013567ffffffffffffffff8082111561115657600080fd5b818701915087601f83011261116a57600080fd5b81358181111561117c5761117c6110ef565b604051601f8201601f19908116603f011681019083821181831017156111a4576111a46110ef565b816040528281528a60208487010111156111bd57600080fd5b82602086016020830137600060208483010152809550505050505092959194509250565b600080604083850312156111f457600080fd5b6111fd83611016565b915061120b60208401611016565b90509250929050565b600181811c9082168061122857607f821691505b60208210810361124857634e487b7160e01b600052602260045260246000fd5b50919050565b60006001820161126e57634e487b7160e01b600052601160045260246000fd5b5060010190565b6020808252602d908201527f4552433732313a2063616c6c6572206973206e6f7420746f6b656e206f776e6560408201526c1c881bdc88185c1c1c9bdd9959609a1b606082015260800190565b600083516112d4818460208801610f9a565b8351908301906112e8818360208801610f9a565b01949350505050565b60208082526025908201527f4552433732313a207472616e736665722066726f6d20696e636f72726563742060408201526437bbb732b960d91b606082015260800190565b60208082526032908201527f4552433732313a207472616e7366657220746f206e6f6e20455243373231526560408201527131b2b4bb32b91034b6b83632b6b2b73a32b960711b606082015260800190565b6001600160a01b03858116825284166020820152604081018390526080606082018190526000906113bb90830184610fbe565b9695505050505050565b6000602082840312156113d757600080fd5b815161076881610f6756fea264697066735822122076476c643a251b36b8ff170f6cdcf3a1e83e18c299c383d2333f1f996a41cc4164736f6c63430008110033",
    "linkReferences": {}
  },
  "methodIdentifiers": {
    "amountMinted(address)": "438a67e7",
    "approve(address,uint256)": "095ea7b3",
    "balanceOf(address)": "70a08231",
    "getApproved(uint256)": "081812fc",
    "isApprovedForAll(address,address)": "e985e9c5",
    "mint()": "1249c58b",
    "name()": "06fdde03",
    "ownerOf(uint256)": "6352211e",
    "safeTransferFrom(address,address,uint256)": "42842e0e",
    "safeTransferFrom(address,address,uint256,bytes)": "b88d4fde",
    "setApprovalForAll(address,bool)": "a22cb465",
    "supportsInterface(bytes4)": "01ffc9a7",
    "symbol()": "95d89b41",
    "tokenURI(uint256)": "c87b56dd",
    "totalSupply()": "18160ddd",
    "transferFrom(address,address,uint256)": "23b872dd"
  },
  "id": 18
}